:020000040800F2
:10000000801C00202D0B0008350B0008370B000862
:10001000390B00083B0B00083D0B000800000000F6
:100020000000000000000000000000003F0B00087E
:10003000410B000800000000430B0008450B0008BE
:10004000470B0008470B0008470B0008470B000848
:10005000470B0008470B0008470B0008470B000838
:10006000470B0008470B0008470B0008470B000828
:10007000470B0008470B0008470B0008470B000818
:10008000470B0008470B0008470B0008470B000808
:10009000470B0008470B0008470B0008470B0008F8
:1000A000470B0008470B0008470B0008470B0008E8
:1000B000470B0008470B0008470B0008470B0008D8
:1000C000470B0008470B0008470B0008470B0008C8
:1000D000470B0008470B0008470B0008470B0008B8
:1000E000470B0008470B0008470B000800F002F818
:1000F00000F03AF80AA090E8000C82448344AAF188
:100100000107DA4501D100F02FF8AFF2090EBAE885
:100110000F0013F0010F18BFFB1A43F0010318473B
:10012000140C0000340C0000103A24BF78C878C1C9
:10013000FAD8520724BF30C830C144BF04680C60ED
:10014000704700000023002400250026103A28BF35
:1001500078C1FBD8520728BF30C148BF0B60704739
:100160001FB51FBD10B510BD00F0ADFD1146FFF766
:10017000F7FF00F05DF800F0CBFD03B4FFF7F2FFEE
:1001800003BC00F0CFFD000010B5534C206853496C
:100190000840B0F1005F4AD14FF0E0204FF0FF314E
:1001A000C0F88011C0F88411C0F88811C0F88C1113
:1001B000C0F89011C0F89411C0F89811C0F89C11C3
:1001C000C0F88012C0F88412C0F88812C0F88C12EF
:1001D000C0F89012C0F89412C0F89812C0F89C129F
:1001E00000210161416181613D48016841F0007178
:1001F00001603B482030016821F4E0210160EFF309
:100200001480800705D5EFF3148020F0020080F3FE
:1002100014884FF48051C80300F028F9206880F357
:100220000888304960684860BDE81040004710BD4C
:1002300000F0CCF82C4E01220421304600F0BCF82E
:1002400001220521304600F0B7F8284800F0ABF84D
:1002500004462648401E00F0A6F844EA0020214C3F
:100260002080234800F09FF805462148401E00F0FA
:100270009AF845EA002060802188814210D01C480D
:10028000C01E00F090F83F280AD100F039F800F0C5
:1002900040F8184A1849104800F068F800F035F99D
:1002A000FFF772FF154F00252846A560401CB84295
:1002B000FCD3A060B0680521C0F34010C2433046B3
:1002C00000F07AF8B0680421C0F30010C243304651
:1002D00000F072F8E8E70000001000080000FE2FB0
:1002E00004ED00E00000002000100140FF060108BE
:1002F000FFFE0108FFFF010800080108FFFF0F00D3
:1003000010B500F0F0F8342000F0FBFA40F2FF10D6
:1003100010BD70B5254D264E002400BF05EB84208E
:1003200000F01CF9641C05EB8420B042F6DB70BDC4
:100330002DE9F04106460420154600241D4F05E036
:1003400038190188301900F0CCF9A41CAC42F7DB55
:10035000BDE8F0810078704710B5002303E0C45C6D
:10036000CC545B1C9BB29342F9D310BD2DE9F041F4
:10037000521A521CC2F38F268846044600254FF4B9
:1003800080670DE03A460B494046FFF7E5FF3A46E5
:1003900008492046FFF7CCFF6D1CADB204F5806420
:1003A000B542EFD3D4E70078704700000010000892
:1003B000FF07010820000020D3074FF0010202FAD6
:1003C00001F201D0026170474261704710B50C4CD8
:1003D000032300220521204600F03FFB03230022D7
:1003E0000421204600F039FB002205212046FFF7BA
:1003F000E3FF20460022BDE810400421DCE70000B6
:10040000001001402849084328490860704770B52A
:100410000F23C47801780122F4B1244C2468457874
:1004200004F4E064C4F5E064240AC4F10406E34083
:100430008478B5401C402C4301F1E021230181F870
:100440000034007800F01F018A404009800000F16C
:10045000E020C0F8002170BD01F01F008240480973
:10046000800000F1E020C0F8802170BD104A1140EA
:1004700001430E48001F016070470C4A121D0029FD
:10048000116801D0014300E08143116070474FF0D3
:10049000E0210428086903D020F0040008617047B7
:1004A00040F00400FAE700000000FA050CED00E05F
:1004B00080FFFF1FFC4A116801F038010143116001
:1004C0007047F9490A6822F008020A600A68024384
:1004D0000A607047F4490A6822F010020A600A684C
:1004E00002430A607047F048F0494160F0494160BA
:1004F0007047ED48ED494160ED4941607047EA4879
:10050000016941F0800101617047E748016941F0EC
:10051000800101617047E4490420CA68D20701D014
:1005200001207047CA68520701D502207047C96888
:10053000C906FBD50320704700B50346FFF7EBFF64
:1005400003E000BFFFF7E7FF5B1E012803D0002B8D
:1005500000D1052000BD002BF4D1FAE770B50546A7
:100560004FF430263046FFF7E7FF042811D1CE4C78
:10057000206940F0020020616561206940F0400080
:1005800020613046FFF7D8FF216941F6FD72114026
:10059000216170BD30B54FF430252846FFF7CCFF00
:1005A000042810D1C04C206940F00400206120696B
:1005B00040F0400020612846FFF7BEFF216941F668
:1005C000FB721140216130BD00B50346FFF7A3FF68
:1005D00003E000BFFFF79FFF5B1E012803D0002B45
:1005E00000D1052000BD002BF4D1FAE730B54FF45F
:1005F00030252846FFF7E8FF042810D1AA4C2069CF
:1006000040F004002061206940F04000206128464D
:10061000FFF7DAFF216941F6FB721140216130BD1D
:10062000A1490020C969890700D50120704770B52C
:10063000A525FFF7F5FF00B100254FF43026304621
:10064000FFF77AFF042827D1974C9848A060984874
:10065000A060206940F020002061206940F0400047
:1006600020613046FFF768FF41F6EF7604280ED18F
:10067000206941F6DF7108402061206940F01000D8
:1006800020618C4805804FF40050FFF755FF052886
:1006900002D021693140216170BDF8B506460020C5
:1006A0004FF4005C00900D466046FFF745FF0428BC
:1006B00016D17D4C206940F00100206135806046F4
:1006C000FFF73AFF41F6FE77042806D1B61C280C46
:1006D000009630806046FFF72FFF21693940216185
:1006E000F8BDF0B506464FF400570D463846FFF703
:1006F00023FF04280CD16C4C206940F001002061DC
:1007000035803846FFF718FF2169BA1E1140216174
:10071000F0BDF0B506464FF400570D463846FFF7DA
:100720000BFF042813D1604C6048A0606048A060B3
:10073000206940F01000206135803846FFF7FCFE4C
:10074000052804D0216941F6EF7211402161F0BD06
:100750002DE9F041C04300F0FF0CC0F30727C0F3C0
:100760000746050E4FF400584046FFF7E5FE042803
:1007700037D14D4C4D49A1604D49A160216941F0EF
:1007800010012161BCF1FF0F08D04A480830A0F8E1
:1007900000C04046FFF7D0FE04281BD1FF2F07D032
:1007A00044480A3007804046FFF7C6FE042811D1AE
:1007B000FF2E07D03F480C3006804046FFF7BCFEB6
:1007C000042807D1FF2D07D03A480E300580404657
:1007D000FFF7B2FE052804D0216941F6EF721140FF
:1007E0002161BDE8F08170B505464FF430263046F2
:1007F000FFF7A2FE042818D12B4C2C48A0602C48EF
:10080000A060206940F020002061206940F0400095
:1008100020613046FFF790FE41F6DF71042805D0D5
:10082000052802D022690A40226170BD2069084073
:100830002061206940F0100020611E480DB10021A8
:1008400000E0A52101803046FFF776FE0528ECD0B8
:10085000216941F6EF721140216170BDF0B5124C73
:100860000746124816460D46A0601148A0604FF496
:10087000005C6046FFF760FE042814D1206940F058
:100880001000206135430B493D43891C45F0F800B9
:1008900008806046FFF750FE052804D0216941F624
:1008A000EF7211402161F0BD002002402301674535
:1008B000AB89EFCD00F8FF1F1C48C0698008704766
:1008C0001A48006A7047194900200968890600D54E
:1008D00001207047154A0029116901D0014300E049
:1008E00081431161704701460020104A012903D05D
:1008F000D2680A4203D17047D169C907FBD00120F1
:1009000070470A49C860704708490420CA68D2077E
:1009100001D001207047CA68520701D502207047F4
:10092000C968C906FBD503207047000000200240BB
:10093000F0B5754A754B764C764D774E774FDFF8AC
:10094000E0C1DFF8E0E151B3704503D1906940F0B8
:10095000040004E0984204D1906940F008009061DE
:10096000F0BDA04203D1906940F01000F7E7A84223
:1009700003D1906940F02000F1E7B04203D19069C3
:1009800040F04000EBE7B84203D1906940F08000AE
:10099000E5E76045E4D1906940F48070DFE7704599
:1009A00003D1906920F00400D9E7984203D19069FF
:1009B00020F00800D3E7A04203D1906920F0100096
:1009C000CDE7A84203D1906920F02000C7E7B042EC
:1009D00003D1906920F04000C1E7B84203D190698B
:1009E00020F08000BBE76045BAD1906920F48070A8
:1009F000B5E74C4A4449904203D18869C0F380006E
:100A00007047424A904203D18869C0F3C0007047E2
:100A10003F4A904203D18869C0F3001070473D4AB5
:100A2000904203D18869C0F3401070473A4A90421F
:100A300003D18869C0F380107047384A904203D1CF
:100A40008869C0F3C0107047354A904203D1886965
:100A5000C0F30020704700207047F0B51F461646CF
:100A60000D4604460F2901D90020F0BDFFF7C1FF54
:100A700018B901212046FFF75BFF6FB90120A8409C
:100A8000022E02D0032E03D006E0E168814302E08B
:100A9000E16802260143E160082D01D3241D083DD1
:100AA0002168A8000F2282409143216047EA860115
:100AB00081402068014321600120F0BD18B5002865
:100AC00019D011498A69D20703D18A6942F001021B
:100AD0008A61C404C0F3421100F01F03124AC0F33C
:100AE000032001FA03F100FA03F005D5D3698B4323
:100AF00018430090D06118BD53688B43184320F011
:100B0000E0600090506018BD00100240000C0140F1
:100B1000001001400014014000180140001C014079
:100B200000200140000801400000014009488047C2
:100B300009480047FEE7FEE7FEE7FEE7FEE7FEE7BF
:100B4000FEE7FEE7FEE7FEE704480549054A064BD7
:100B5000704700000D0C0008ED0000088004002024
:100B6000801C0020800C0020800C00200CB500218F
:100B70004B4801910091026842F4803202604FF4C8
:100B8000A063026802F400320092019A521C0192A2
:100B9000009A12B9019A9A42F3D10268920333D5AE
:100BA000012100913F490A6842F010020A600A6878
:100BB00022F003020A600A6842F001020A604168FA
:100BC000416041684160416841F480614160416831
:100BD00021F47C114160416841F488114160016851
:100BE00041F08071016001688901FCD5416821F004
:100BF00003014160416841F0020141604168C1F375
:100C000081010229FAD10CBD00910CBD244810B518
:100C1000016841F0010101604168234A11404160CF
:100C20000168224A11400160016821F480210160BD
:100C3000416821F4FE0141604FF41F018160FFF71C
:100C400095FF1B494FF00060086010BD144910B5B6
:100C50004868184A10F00C03174803D0042B01D041
:100C6000082B0AD002604968134AC1F30311121D10
:100C7000515C0268CA40026010BD4A684B6802F4C9
:100C800070124FF0020413F4803F04EB924202D042
:100C90004B689B0301D5094B00E0064B5A43E1E743
:100CA00000100240002002400000FFF8FFFFF6FEA7
:100CB00008ED00E000127A000C00002000093D0061
:100CC000704770477047754600F028F8AE4605003B
:100CD0006946534620F00700854618B020B5FFF757
:100CE00033FFBDE820404FF000064FF000074FF003
:100CF00000084FF0000B21F00701AC46ACE8C0093A
:100D0000ACE8C009ACE8C009ACE8C0098D46704742
:100D10000446AFF300802046FFF72FFA00487047E3
:100D20002004002001491820ABBEFEE72600020087
:100D300070470000540D0008000000202000000053
:100D400028010008740D000820000020601C00002D
:100D50004401000800000000000000000000000046
:100D6000006CDC020000000000000000010203042F
:040D70000607080961
:04000005080000ED02
:00000001FF
